{
  "transactions": [
    {
      "hash": "0x910a494e9917c44e0c32366b2faa47514f4dd52b78126187a677d0e5edf00ac5",
      "transactionType": "CALL",
      "contractName": null,
      "contractAddress": "0x3c5de4c89f16c96e2434d276eb4a8d74456cd196",
      "function": null,
      "arguments": null,
      "transaction": {
        "from": "0xf1a38c55d87517d7bc0112ecc67069ef041a0aa4",
        "to": "0x3c5de4c89f16c96e2434d276eb4a8d74456cd196",
        "gas": "0x6aa4",
        "value": "0x2c68af0bb140000",
        "input": "0x",
        "nonce": "0x1a",
        "chainId": "0x279f"
      },
      "additionalContracts": [],
      "isFixedGasLimit": false
    },
    {
      "hash": "0xe6c24e4e8a240882480d025c9677154f796eaca708671b36d28930cb89312d11",
      "transactionType": "CALL",
      "contractName": null,
      "contractAddress": "0x0ddce05acacd1c4477a1ac94fb3831586ee25f31",
      "function": null,
      "arguments": null,
      "transaction": {
        "from": "0xf1a38c55d87517d7bc0112ecc67069ef041a0aa4",
        "to": "0x0ddce05acacd1c4477a1ac94fb3831586ee25f31",
        "gas": "0x6aa4",
        "value": "0x2c68af0bb140000",
        "input": "0x",
        "nonce": "0x1b",
        "chainId": "0x279f"
      },
      "additionalContracts": [],
      "isFixedGasLimit": false
    },
    {
      "hash": null,
      "transactionType": "CALL",
      "contractName": null,
      "contractAddress": "0x68ed310267eb81a1250b36a91b826d0973451461",
      "function": "registerAgent(string,string,string,uint256)",
      "arguments": [
        "Hypervault FX Agent",
        "Momentum / Carry",
        "Systematic momentum and carry trades across synthetic FX pairs, with drawdown-aware position sizing.",
        "500"
      ],
      "transaction": {
        "from": "0x3c5de4c89f16c96e2434d276eb4a8d74456cd196",
        "to": "0x68ed310267eb81a1250b36a91b826d0973451461",
        "gas": "0x8b966",
        "value": "0x0",
        "input": "0x67dc4eb0000000000000000000000000000000000000000000000000000000000000008000000000000000000000000000000000000000000000000000000000000000c0000000000000000000000000000000000000000000000000000000000000010000000000000000000000000000000000000000000000000000000000000001f4000000000000000000000000000000000000000000000000000000000000001348797065727661756c74204658204167656e740000000000000000000000000000000000000000000000000000000000000000000000000000000000000000104d6f6d656e74756d202f20436172727900000000000000000000000000000000000000000000000000000000000000000000000000000000000000000000006453797374656d61746963206d6f6d656e74756d20616e6420636172727920747261646573206163726f73732073796e7468657469632046582070616972732c20776974682064726177646f776e2d617761726520706f736974696f6e2073697a696e672e00000000000000000000000000000000000000000000000000000000",
        "nonce": "0x0",
        "chainId": "0x279f"
      },
      "additionalContracts": [],
      "isFixedGasLimit": false
    },
    {
      "hash": null,
      "transactionType": "CALL",
      "contractName": null,
      "contractAddress": "0x68ed310267eb81a1250b36a91b826d0973451461",
      "function": "registerAgent(string,string,string,uint256)",
      "arguments": [
        "Hypervault Yield Agent",
        "Auto-Compounding LP",
        "Auto-compounds stablecoin and blue-chip LP positions across Monad DEXs with on-chain yield rotation.",
        "500"
      ],
      "transaction": {
        "from": "0x0ddce05acacd1c4477a1ac94fb3831586ee25f31",
        "to": "0x68ed310267eb81a1250b36a91b826d0973451461",
        "gas": "0x8b9c5",
        "value": "0x0",
        "input": "0x67dc4eb0000000000000000000000000000000000000000000000000000000000000008000000000000000000000000000000000000000000000000000000000000000c0000000000000000000000000000000000000000000000000000000000000010000000000000000000000000000000000000000000000000000000000000001f4000000000000000000000000000000000000000000000000000000000000001648797065727661756c74205969656c64204167656e740000000000000000000000000000000000000000000000000000000000000000000000000000000000134175746f2d436f6d706f756e64696e67204c500000000000000000000000000000000000000000000000000000000000000000000000000000000000000000644175746f2d636f6d706f756e647320737461626c65636f696e20616e6420626c75652d63686970204c5020706f736974696f6e73206163726f7373204d6f6e616420444558732077697468206f6e2d636861696e207969656c6420726f746174696f6e2e00000000000000000000000000000000000000000000000000000000",
        "nonce": "0x0",
        "chainId": "0x279f"
      },
      "additionalContracts": [],
      "isFixedGasLimit": false
    }
  ],
  "receipts": [
    {
      "status": "0x1",
      "cumulativeGasUsed": "0x2fd9a",
      "logs": [],
      "logsBloom": "0x00000000000000000000000000000000000000000000000000000000000000000000000000000000000000000000000000000000000000000000000000000000000000000000000000000000000000000000000000000000000000000000000000000000000000000000000000000000000000000000000000000000000000000000000000000000000000000000000000000000000000000000000000000000000000000000000000000000000000000000000000000000000000000000000000000000000000000000000000000000000000000000000000000000000000000000000000000000000000000000000000000000000000000000000000000000",
      "type": "0x2",
      "transactionHash": "0x910a494e9917c44e0c32366b2faa47514f4dd52b78126187a677d0e5edf00ac5",
      "transactionIndex": "0x2",
      "blockHash": "0x84c2734790ce8914ce7df6704ba11057104fb1d7559f1bbb0abbd54113a664d1",
      "blockNumber": "0x1a3536d",
      "gasUsed": "0x6aa4",
      "effectiveGasPrice": "0x1c7f9bc7ff",
      "from": "0xf1a38c55d87517d7bc0112ecc67069ef041a0aa4",
      "to": "0x3c5de4c89f16c96e2434d276eb4a8d74456cd196",
      "contractAddress": null
    }
  ],
  "libraries": [],
  "pending": [],
  "returns": {},
  "timestamp": 1777021161065,
  "chain": 10143,
  "commit": "a2cc13d"
}