{
  "transactions": [
    {
      "hash": null,
      "transactionType": "CALL",
      "contractName": null,
      "contractAddress": "0x68ed310267eb81a1250b36a91b826d0973451461",
      "function": "registerAgent(string,string,string,uint256)",
      "arguments": [
        "Hypervault FX Agent",
        "Momentum / Carry",
        "Systematic momentum and carry trades across synthetic FX pairs, with drawdown-aware position sizing.",
        "500"
      ],
      "transaction": {
        "from": "0x3c5de4c89f16c96e2434d276eb4a8d74456cd196",
        "to": "0x68ed310267eb81a1250b36a91b826d0973451461",
        "gas": "0x8b966",
        "value": "0x0",
        "input": "0x67dc4eb0000000000000000000000000000000000000000000000000000000000000008000000000000000000000000000000000000000000000000000000000000000c0000000000000000000000000000000000000000000000000000000000000010000000000000000000000000000000000000000000000000000000000000001f4000000000000000000000000000000000000000000000000000000000000001348797065727661756c74204658204167656e740000000000000000000000000000000000000000000000000000000000000000000000000000000000000000104d6f6d656e74756d202f20436172727900000000000000000000000000000000000000000000000000000000000000000000000000000000000000000000006453797374656d61746963206d6f6d656e74756d20616e6420636172727920747261646573206163726f73732073796e7468657469632046582070616972732c20776974682064726177646f776e2d617761726520706f736974696f6e2073697a696e672e00000000000000000000000000000000000000000000000000000000",
        "nonce": "0x0",
        "chainId": "0x279f"
      },
      "additionalContracts": [],
      "isFixedGasLimit": false
    },
    {
      "hash": null,
      "transactionType": "CALL",
      "contractName": null,
      "contractAddress": "0x68ed310267eb81a1250b36a91b826d0973451461",
      "function": "registerAgent(string,string,string,uint256)",
      "arguments": [
        "Hypervault Yield Agent",
        "Auto-Compounding LP",
        "Auto-compounds stablecoin and blue-chip LP positions across Monad DEXs with on-chain yield rotation.",
        "500"
      ],
      "transaction": {
        "from": "0x0ddce05acacd1c4477a1ac94fb3831586ee25f31",
        "to": "0x68ed310267eb81a1250b36a91b826d0973451461",
        "gas": "0x8b9c5",
        "value": "0x0",
        "input": "0x67dc4eb0000000000000000000000000000000000000000000000000000000000000008000000000000000000000000000000000000000000000000000000000000000c0000000000000000000000000000000000000000000000000000000000000010000000000000000000000000000000000000000000000000000000000000001f4000000000000000000000000000000000000000000000000000000000000001648797065727661756c74205969656c64204167656e740000000000000000000000000000000000000000000000000000000000000000000000000000000000134175746f2d436f6d706f756e64696e67204c500000000000000000000000000000000000000000000000000000000000000000000000000000000000000000644175746f2d636f6d706f756e647320737461626c65636f696e20616e6420626c75652d63686970204c5020706f736974696f6e73206163726f7373204d6f6e616420444558732077697468206f6e2d636861696e207969656c6420726f746174696f6e2e00000000000000000000000000000000000000000000000000000000",
        "nonce": "0x0",
        "chainId": "0x279f"
      },
      "additionalContracts": [],
      "isFixedGasLimit": false
    }
  ],
  "receipts": [],
  "libraries": [],
  "pending": [],
  "returns": {},
  "timestamp": 1777021106213,
  "chain": 10143,
  "commit": "a2cc13d"
}